:02000002D0002C
:1040000000400D0054530D00000006000C00050197
:084010000401E80500000000B6
:04401800B84F0D0090
:10401C0009480A49884208B505D0094A824202D0AB
:10402C00121A00F07FFF0748074A0021121A00F00D
:10403C0084FF014808BD00BF8CE30320C4520D006F
:10404C00F4E30320F4E30320F0E7032070B500F061
:10405C00EBFC074C074BE41AA40800251E46A542AE
:10406C0004D056F8253098470135F8E770BD00BFED
:10407C00B8520D0080520D0000F013B808B500F0D6
:10408C0011F8BDE8084000F091BC00F04BB900F00D
:10409C0049B90078B0FA80F04009704701230370E9
:1040AC0070477047704700F0A9B8000008B5024B84
:1040BC001B681B68019308BD4C02030008B5024B3A
:1040CC001B681B69019308BD4C02030008B5024B29
:1040DC001B685B69019308BD4C02030008B5024BD9
:1040EC001B689B69019308BD4C02030008B5024B89
:1040FC001B68DB69019308BD4C02030008B5024B39
:10410C001B681B6A019308BD4C02030008B5024BE7
:10411C001B681B68019308BD3C02030008B5024BE9
:10412C001B68DB68019308BD3C02030008B5024B19
:10413C001B681B69019308BD3C02030008B5024BC8
:10414C001B685B69019308BD3C02030008B5024B78
:10415C001B689B69019308BD3C02030008B5024B28
:10416C001B68DB69019308BD3C02030008B5024BD8
:10417C001B689B6A019308BD3C02030008B5024B07
:10418C001B685B69019308BD6402030008B5024B10
:10419C001B689B68019308BD4802030008B5024BDD
:1041AC001B681B69019308BD4802030008B5024B4C
:1041BC001B685B69019308BD4802030008B5024BFC
:1041CC001B685B6C019308BD4802030008B5024BE9
:1041DC001B689B6C019308BD4802030008B5024B99
:1041EC001B685B68019308BD1802030008B5024BFD
:1041FC001B685B69019308BD1802030008B5024BEC
:10420C001B681B68019308BD2C02030008B5024B08
:10421C001B689B68019308BD6802030008B5024B3C
:10422C001B68DB68019308BD6802030008B5024BEC
:10423C001B68DB6B019308BD4402030008B5024BFD
:10424C001B685B68019308BD4002030008B5024B74
:10425C001B689B68019308BD4002030008B5024B24
:10426C001B68DB68019308BD4002030008B5024BD4
:10427C001B681B69019308BD4002030008B5024B83
:10428C001B685B69019308BD4002030008B5024B33
:10429C001B689B69019308BD4002030008B5024BE3
:1042AC001B68DB69019308BD4002030008B5024B93
:1042BC001B681B6A019308BD4002030008B5024B42
:1042CC001B681B6B019308BD4002030008B5024B31
:1042DC001B685B6B019308BD4002030008B5024BE1
:1042EC001B685B68019308BD2002030008B5034BF3
:1042FC001B68D3F88830019308BD0000200203002E
:10430C0008B5034B1B68D3F89430019308BD00002B
:10431C002002030008B5024B1B681B68019308BD03
:10432C001C02030008B5024B1B685B68019308BDB7
:10433C001C02030000231A464068FFF77FBF0022CF
:10434C0002214068FFF78ABF002211464068FFF740
:10435C007DBF002211464068FFF788BF00231A4634
:10436C0019464068FFF78ABF00231A461946406871
:10437C00FFF78CBF002281F001014068FFF78EBF70
:10438C0000224068FFF79ABF002211464068FFF7F1
:10439C009DBF002211464068FFF788BF2DE9F0430E
:1043AC00002495B016460D46074600F09FFA2146AC
:1043BC0020220CA8009400F0C0FD40230C93214651
:1043CC006B460CAA3046FFF729FF0446002844D15F
:1043DC00024601216868FFF749FF02218046224608
:1043EC006868FFF743FF009E81462146002E34D0BB
:1043FC00002932D17368022B02D00A2B09D02AE093
:10440C00B8F1000F27D071693846043100F09BFADF
:10441C0020E0B9F1000F1ED07469112201A800F040
:10442C008CFD06238DF8143001AD04F1080318340B
:10443C00186859682A4603C20833A3421546F7D1B7
:10444C0001A906A807AD00F05FFA0FCD3C1D0FC403
:10445C002B6823700121F669C8E70098FFF7D6FE98
:10446C00384615B0BDE8F083024B034A1A600022AF
:10447C005A607047F8E30320D44F0D000022114618
:10448C004068FFF713BF002211464068FFF71EBFBC
:10449C0000224068FFF712BF002281F00101406842
:1044AC00FFF7FCBE00231A4601214068FFF7EEBE61
:1044BC0000231A4619464068FFF7E0BE0022114659
:1044CC004068FFF7D3BE002211464068FFF7BEBE1E
:1044DC00002202214068FFF7C1BE00231A46406843
:1044EC00FFF7ACBE38B5054688B104684CB1A3687B
:1044FC001BB103222146204698471021204600F08C
:10450C00B8FB28461421BDE8384000F0B2BB38BDDA
:10451C0010B103685B681847704710B50368044610
:10452C00BBB15868FFF732FE78B923685A7C12B9D0
:10453C005868FFF733FE23685868FFF737FE20688A
:10454C000023236028B1FFF7CDFF206808B1FFF7E7
:10455C00C9FF204610BD38B50446D0F8C40108B1D7
:10456C00FFF795FDD4F8C00108B1FFF72FFED4F882
:10457C00BC5135B12846FFF7D0FF0421284600F086
:10458C0078FB206808B1FFF7C3FF204638BD000058
:10459C0010B5044B044640F8083BFFF7DCFF2046FF
:1045AC0010BD00BF08500D0038B50E4C0E4B2360EB
:1045BC000025022304F5E4706360A560C4F8C451BF
:1045CC00C4F8C851FFF7FAFD084BC4F8CC5184F875
:1045DC00D05123602046064A0649BDE8384000F019
:1045EC0043BB00BF00E40320D44F0D0008500D0066
:1045FC00F4E303209D450D00002211464068FFF7AF
:10460C0035BE002211464068FFF750BE002211460D
:10461C004068FFF75BBE00224068FFF74FBE0022E8
:10462C0081F001014068FFF739BE00231A46194694
:10463C004068FFF72BBE00231A4619464068FFF767
:10464C001DBE002211464068FFF700BE0022022169
:10465C004068FFF703BE00231A464068FFF7EEBD23
:10466C00024B04225A60024A1A607047D4E50320B8
:10467C003C500D0070474174704708B5007CFFF743
:10468C0075FD20EAE07008BD08B5007CFFF74EFD13
:10469C0020EAE07008BD08B5007CFFF757FD30EA52
:1046AC00200028BF4FF0FF3008BD08B5007CFFF795
:1046BC0045FD30EA200028BF4FF0FF3008BD007CDC
:1046CC00FFF74CBD10B51421044600F0D2FA204679
:1046DC0010BD70B5457C04460E4625B9007CFFF72D
:1046EC0045FD002805DD3146207CBDE87040FFF714
:1046FC0015BD284670BD000010B50446084611468D
:10470C00002262604FF47A72A260054A2260012294
:10471C00207462741A46FFF7F9FC204610BD00BFE6
:10472C0070500D0038B50C4D296811F0010411D1F1
:10473C002846FFF7AEFC68B1084A094B09482146E8
:10474C00FFF7DAFF2846FFF7A9FC074A0749054897
:10475C0000F08AFA034838BD74E6032078E603209B
:10476C00F0E50320DCE50320F4E3032081460D0093
:10477C0041747047704708B50021007CFFF7AEFC10
:10478C0030EA200028BF4FF0FF3008BD08B50121EA
:10479C00007CFFF7A3FC30EA200028BF4FF0FF306D
:1047AC0008BD08B5007CFFF791FC20EAE07008BD5D
:1047BC0008B5007CFFF782FC20EAE07008BD007CA5
:1047CC00FFF79CBC10B51421044600F052FA2046A9
:1047DC0010BD38B50446007C0D46FFF777FC002869
:1047EC0001DC607C28B12946207CFFF77FFC20EAA5
:1047FC00E07038BD10B50446002363604FF47A7343
:10480C00A360054B23600123084621746374114691
:10481C00FFF74CFC204610BDA0500D0010B5142223
:10482C000446002100F089FB204610BD30B50E4D2A
:10483C0087B001A8FFF7F2FF296811F0010410D12D
:10484C002846FFF726FC60B101AA21460748FFF76E
:10485C00D1FF2846FFF722FC054A0649034800F021
:10486C0003FA024807B030BDFCE6032000E7032042
:10487C00F4E3032081470D00704710B5182104465E
:10488C0000F0F7F9204610BDF0B5037D062B8DB076
:10489C000E4600F104074FF0000402D000F10805A9
:1048AC0018E00CAD394605F8304D2F232A460A2066
:1048BC00FFF764FC284600F071FB33680246DB68A6
:1048CC002946304698470FE024B12E21304600F09F
:1048DC0023F9044415F8011D0A22304600F01FF993
:1048EC00BD420444F0D120460DB0F0BD10B5054BCF
:1048FC000446112240F8043B002100F01EFB204628
:10490C0010BD00BFD0500D000346074A10B543F848
:10491C00042B01F1100251F8044B43F8044B914263
:10492C00F9D10A781A7010BDD0500D0010B59DF851
:10493C00084044EA032343EA024242EA01610423A9
:10494C004160037510BD37B50D788B784A78C978FE
:10495C0000912946FFF7EAFF03B030BD10B583681C
:10496C00044613B1032201469847204610BD0000AF
:10497C0008B50C4B33B1FFF759FF03681B69984717
:10498C00002809DC084B63B1FFF7CCFE03681B69F8
:10499C009847002803DC08BDAFF30080F2E7AFF3C3
:1049AC00008008BD000000000000000008B5FFF703
:1049BC00DFFFFFF71BFC014B186008BD4CE7032021
:1049CC000248034A0349121A00F0ACBA00F403205F
:1049DC0004F40320C0520D0007B5002300931A46BF
:1049EC006FF07701FFF78CFC03B05DF804FB00005F
:1049FC0007B543880A2B08D0502B09D1094B1B68EB
:104A0C003BB103B05DF804EB1847FFF7E5FF06E098
:104A1C00002300931A466FF07701FFF771FC03B087
:104A2C005DF804FB14E7032038B5104C104D2368D7
:104A3C00AB42104B0CBF012200221A7002D0FFF7C0
:104A4C00BFFF2560FFF7CAFB044600F07FFA0A4B54
:104A5C0013B12046AFF3008000210748FFF7E6FBB7
:104A6C0000210648BDE83840FFF740BC00F40320A5
:104A7C001E1C279A18E7032000000000FD490D00BA
:104A8C0010B50446FFF76AFF204610BD0348044AE0
:104A9C0004490023836000F0E7B800BF1CE7032043
:104AAC00F4E303208D4A0D00024B1A68024B1A6086
:104ABC00704700BF8CE303202CE70320014B024A14
:104ACC001A60704730E7032078510D00F8B50646A0
:104ADC000D468F180024BD420CD0336815F8011B0D
:104AEC009B6830469847002801DB0444F3E7002C10
:104AFC0008BF04462046F8BD70B505460C4608466E
:104B0C0049B100F04BFA2B68024621462846DB6877
:104B1C00BDE87040184770BD03689B68184730B5F6
:104B2C008BB00B4600218DF82410012A98BF0A2265
:104B3C000DF12304B3FBF2F505FB123303F0FF0375
:104B4C00092B94BF30333733DBB2214604F80139DB
:104B5C002B46002DEED1FFF7CFFF0BB030BD10B5BB
:104B6C000446006808B1FFF731FB204610BD000079
:104B7C0010B5064C002320462360FFF71FFB204690
:104B8C00034A0449BDE8104000F06EB834E7032036
:104B9C00F4E303206B4B0D0010B50446006818B10C
:104BAC00FFF7C0FB0023236010BD10B50446FFF7D0
:104BBC00F3FF204610BD000010B5094C00204FF645
:104BCC00FF732060A080A07120816381FFF786FBBA
:104BDC002046044A0449BDE8104000F045B800BF27
:104BEC0038E70320F4E30320B74B0D0000221146F5
:104BFC004068FFF75BBB002211464068FFF766BBBD
:104C0C0000224068FFF75ABB002281F00101406886
:104C1C00FFF744BB00231A4619464068FFF736BB22
:104C2C0000231A4619464068FFF728BB002211469C
:104C3C004068FFF71BBB002211464068FFF706BB1C
:104C4C00002202214068FFF709BB00231A46406886
:104C5C00FFF7F4BA024B03225A60024A1A607047FB
:104C6C0044E70320F0510D000B460146184600F0B6
:104C7C004BB9FFF70ABA0000184B1A68D1075CBF92
:104C8C0001221A60164B1A68D2075CBF01221A6007
:104C9C00144B1A68D0075CBF01221A60124B1A68B9
:104CAC00D1075CBF01221A60104B1A68D2075CBF97
:104CBC0001221A600E4B1A68D0075CBF01221A60E1
:104CCC000C4B1A68D1075CBF01221A600A4B1A6898
:104CDC00D2075CBF01221A60704700BF6CE703204B
:104CEC0068E7032064E7032060E703205CE7032008
:104CFC0058E7032054E7032050E70320244B1A689D
:104D0C00D0075CBF01221A60224B1A68D1075CBF26
:104D1C0001221A60204B1A68D2075CBF01221A606C
:104D2C001E4B1A68D0075CBF01221A601C4B1A6814
:104D3C00D1075CBF01221A601A4B1A68D2075CBFFC
:104D4C0001221A60184B1A68D0075CBF01221A6046
:104D5C00164B1A68D1075CBF01221A60144B1A68F3
:104D6C00D2075CBF01221A60124B1A68D0075CBFD5
:104D7C0001221A60104B1A68D1075CBF01221A601D
:104D8C000E4B1A68D2075CBF01221A60704700BF35
:104D9C009CE7032098E7032094E7032090E7032087
:104DAC008CE7032088E7032084E7032080E70320B7
:104DBC007CE7032078E7032074E7032070E70320E7
:104DCC00244B1A68D0075CBF01221A60224B1A6868
:104DDC00D1075CBF01221A60204B1A68D2075CBF56
:104DEC0001221A601E4B1A68D0075CBF01221A60A0
:104DFC001C4B1A68D1075CBF01221A601A4B1A6847
:104E0C00D2075CBF01221A60184B1A68D0075CBF2E
:104E1C0001221A60164B1A68D1075CBF01221A6076
:104E2C00144B1A68D2075CBF01221A60124B1A6825
:104E3C00D0075CBF01221A60104B1A68D1075CBF07
:104E4C0001221A600E4B1A68D2075CBF01221A604D
:104E5C00704700BFCCE70320C8E70320C4E703205A
:104E6C00C0E70320BCE70320B8E70320B4E7032026
:104E7C00B0E70320ACE70320A8E70320A4E7032056
:104E8C00A0E70320184B1A68D1075CBF01221A60F7
:104E9C00164B1A68D2075CBF01221A60144B1A68B1
:104EAC00D0075CBF01221A60124B1A68D1075CBF95
:104EBC0001221A60104B1A68D2075CBF01221A60DB
:104ECC000E4B1A68D0075CBF01221A600C4B1A6893
:104EDC00D1075CBF01221A600A4B1A68D2075CBF6B
:104EEC0001221A60704700BFECE70320E8E70320BB
:104EFC00E4E70320E0E70320DCE70320D8E7032006
:104F0C00D4E70320D0E7032010B5054C13462CB191
:104F1C000A4601460220AFF3008010BD204610BDAA
:104F2C000000000010B5431E0A44914204D011F851
:104F3C00014B03F8014FF8E710BD024403469342BE
:104F4C0002D003F8011BFAE77047000038B5124B8A
:104F5C001C68A36B0546D3B91820FFF7DBF943F2A5
:104F6C000E33A06303804AF6CD33438041F23423E1
:104F7C0083804EF26D63C3804DF6EC630381052391
:104F8C0043810B23838101220023C0E90423A36BFB
:104F9C0000221D615A6138BDF0E30320034613F86B
:104FAC00012B002AFBD1181A013870471D400D0047
:104FBC0059400D0085400D0089400D000000000097
:104FCC00000000000000000041430D004B430D00A9
:104FDC0055430D005F430D0069430D0075430D00F3
:104FEC0081430D008D430D0095430D009F430D0033
:104FFC00A9430D000000000000000000E7440D0074
:10500C00DD440D00D3440D00C9440D00BD440D001A
:10501C00B1440D00A5440D009D440D0093440D00BA
:10502C0089440D00A9430D000000000000000000A1
:10503C0063460D0059460D004F460D0005460D0008
:10504C0043460D0037460D002B460D0023460D0040
:10505C0019460D000F460D00A9430D00000000007D
:10506C000000000081460D00D1460D00DF460D000A
:10507C00D94A0D0095460D00B7460D00A3460D000C
:10508C00CB460D0083460D0087460D000000000046
:10509C000000000081470D00D1470D00DF470D00D7
:1050AC00D94A0D00BD470D0083470D0099470D00EF
:1050BC00CB470D00AF470D007D470D0000000000F1
:1050CC000000000095480D0085480D0087480D0034
:1050DC005A00252B3033643A253032750025592D72
:1050EC00256D2D25645425483A254D3A2553257AAE
:1050FC000061736374696D6500626175640053656A
:10510C007269616C0053657269616C3100747970FD
:10511C006500706172616D00636D640069640068A4
:10512C006E64007374726D0066696C74006C766CDE
:10513C000061646448616E646C65720072656D6FC9
:10514C00766548616E646C657200656E756D48615C
:10515C006E646C657273004A534F4E537472656182
:10516C006D4C6F6748616E646C65720061707000A5
:10517C00253031307520005D20002564002C200086
:10518C0028293A2000205B00636F6465203D2000D5
:10519C0025690064657461696C73203D20000D0AFB
:1051AC000066006C6E00666E00636F64650064657B
:1051BC007461696C006E6F6E65007472616365007A
:1051CC00696E666F007761726E006572726F720045
:1051DC0070616E696300616C6C000000000000007F
:1051EC0000000000574C0D004D4C0D00434C0D00C1
:1051FC00394C0D002D4C0D00214C0D00154C0D00A3
:10520C000D4C0D00034C0D00F94B0D00A9430D0086
:10521C000000000000000000000000000000000082
:10522C000000000000000000000000000000000072
:10523C000000000000000000000000000000000062
:10524C000000000000000000000000000000000052
:10525C000000000000000000000000000000000042
:10526C000000000000000000000000000000000032
:10527C0043000000B3400D0075440D00B5450D0012
:10528C006D460D00994A0D00B54A0D00C94A0D0036
:10529C007D4B0D00C54B0D00614C0D00854C0D0078
:1052AC00094D0D00CD4D0D00914E0D00000000007C
:0452BC0000000000EE
:0452C00000000000EA
:1052C400FD500D00000000001C520D003C520D006A
:1052D4005C520D000000000000000000000000000F
:1052E400000000007C520D000000000000000000DF
:1052F40000000000000000000000000000000000AA
:105304000000000000000000000000000000000099
:105314000000000000000000000000000000000089
:085324000000000090E30320EB
:10532C00FFFFFFFF00000102030405060708090A3E
:10533C000B0C0D0E0F101112131415161718191A39
:08534C001B1C1D1E1F20280080
:045354007856341241
:04000003D000401CCD
:00000001FF
